S0100000616C66616265746F2E73726563D6
S11300000C945A000C9477000C9477000C940A0416
S11300100C9477000C9477000C9477000C94770080
S11300200C9477000C9477000C9477000C94770070
S11300300C9477000C9479040C9477000C9477005A
S11300400C9477000C9477000C9477000C94770050
S11300500C9477000C9477000C9477000C94770040
S11300600C9477000C9477000C9477000C94770030
S11300700C9477000C9477000C94770093029D0203
S1130080A702B102BB02C502CF02D902E302ED020C
S1130090F70201030B0315033E03480352035C03F9
S11300A0660370037A0384038E039803A203AC03EC
S11300B0B603C00311241FBECFEFD4E0DEBFCDBF13
S11300C011E0A0E0B1E0E8E8F9E002C005900D928B
S11300D0AA3FB107D9F721E0AAEFB1E001C01D9210
S11300E0AE3FB207E1F70E9451010C94C2040C9494
S11300F00000119A00C011980895CF93C82F662369
S113010011F0139A01C0139812980F9A0E9A0D9A2F
S11301100C9A1498159816981798CC230CF4149AE2
S1130120C6FD159AC5FD169AC4FD179A0E9479005A
S11301301498159816981798C3FD149AC2FD159A29
S1130140C1FD169AC0FD179A0E947900179A169A53
S1130150159A149ACF91089560E00E947D00089545
S1130160611104C080580E94AC000FC0613021F4BA
S113017080540E94AC0009C0623021F48C560E9465
S1130180AC0003C08C520E94AC0080E590E0019763
S1130190F1F7089581E00E94AC0080E29DE00197B0
S11301A0F1F7089561E00E947D0080E590E00197F9
S11301B0F1F70895CF93DF93EC012196FC01808140
S11301C0882329F00E94D20089918111FBCFDF910D
S11301D0CF9108951F93CF93DF93182F0B9A0A9A08
S11301E0099A0F9A0E9A0D9A0C9A80E09DE701974E
S11301F0F1F7169A179A0E94790080E097E2019726
S1130200F1F70E947900C0E8D0E0FE013197F1F7E0
S11302100E947900FE013197F1F717980E94790046
S11302202197F1F788E20E94AC00C0E5D0E0FE011E
S11302303197F1F788E00E94AC00FE013197F1F7A5
S11302400E94CA0086E00E94AC00FE013197F1F7DB
S1130250812F0E94AC002197F1F7DF91CF911F917C
S113026008958EEF81B912B814B884E085B991E08D
S113027097B918B890E2909369008DBB10928000F2
S1130280E1E8F0E080818D608083109282008FE04D
S1130290809389008FEF8093880082E080936F00C1
S11302A008950E94310178948CE00E94EA0060E095
S11302B085E00E94B00080E091E00E94DA0061E0F5
S11302C082E00E94B00089E091E00E94DA0062E0DE
S11302D084E00E94B00089E191E00E94DA002FEFEF
S11302E081E093E5215080409040E1F700C0000098
S11302F00E94CA008091FD01813009F45DC038F08C
S1130300823009F495C0833009F4C6C0F5CF8091DA
S1130310FB01811117C060E00E94B00083E291E00C
S11303200E94DA0061E080E00E94B00084E391E082
S11303300E94DA0062E080E00E94B00086E491E06E
S11303400E94DA008091FB018130C1F460E080E01A
S11303500E94B00084E591E00E94DA0061E080E050
S11303600E94B00087E691E00E94DA0062E080E03B
S11303700E94B00086E491E00E94DA008091FB01C3
S1130380823009F0B7CF60E080E00E94B00084E5DD
S113039091E00E94DA0061E080E00E94B00084E312
S11303A091E00E94DA0062E080E00E94B00089E7F8
S11303B091E00E94DA009ECF8FE097E20197F1F777
S11303C000C0000061E080E00E94B00087E891E096
S11303D00E94DA008FE097E20197F1F700C0000075
S11303E062E080E00E94B00087E891E00E94DA00B9
S11303F08FE097E20197F1F700C0000060E080E031
S11304000E94B0008CE991E00E94DA0061E08091E2
S1130410FC010E94B00080EB91E00E94DA0062E0EF
S113042080E00E94B0008AE891E00E94DA0062CF86
S11304308FE097E20197F1F700C0000061E080E0EF
S11304400E94B00087E891E00E94DA008FE097E212
S11304500197F1F700C0000062E080E00E94B00064
S113046087E891E00E94DA008FE097E20197F1F7C4
S113047000C0000060E080E00E94B00084E391E0EE
S11304800E94DA0061E08091FC010E94B00080EBE0
S113049091E00E94DA002ECF8FE097E20197F1F706
S11304A000C0000061E080E00E94B00087E891E0B5
S11304B00E94DA008FE097E20197F1F700C0000094
S11304C062E080E00E94B00087E891E00E94DA00D8
S11304D08FE097E20197F1F700C0000060E080E050
S11304E00E94B00084EB91E00E94DA0061E0809108
S11304F0FC010E94B00085EC91E00E94DA00FACE83
S11305008FE39CE90197F1F700C00000E091FC0142
S11305108E2F90E08E30910508F090C0FC01E25CD3
S1130520FF4F0C94BC0463E08091FA010E94B00078
S113053081E291E00E94DA0081C063E08091FA01D7
S11305400E94B0008FEC91E00E94DA0077C063E073
S11305508091FA010E94B00081ED91E00E94DA00DE
S11305606DC063E08091FA010E94B00083ED91E0D8
S11305700E94DA0063C063E08091FA010E94B00037
S113058085ED91E00E94DA0059C063E08091FA01A0
S11305900E94B00087ED91E00E94DA004FC063E052
S11305A08091FA010E94B00089ED91E00E94DA0086
S11305B045C063E08091FA010E94B0008BED91E0A8
S11305C00E94DA003BC063E08091FA010E94B0000F
S11305D08DED91E00E94DA0031C063E08091FA0170
S11305E00E94B0008FED91E00E94DA0027C063E022
S11305F08091FA010E94B00081EE91E00E94DA003D
S11306001DC063E08091FA010E94B00083EE91E086
S11306100E94DA0013C063E08091FA010E94B000E6
S113062085EE91E00E94DA0009C063E08091FA014E
S11306300E94B00087E191E00E94DA001092FD016F
S11306401092FC011092FB018FE39CE90197F1F7F2
S113065000C0000008958FE39CE90197F1F700C002
S11306600000E091FC018E2F90E08E30910508F09F
S113067090C0FC01E45BFF4F0C94BC0463E08091E8
S1130680FA010E94B00087E091E00E94DA0081C084
S113069063E08091FA010E94B00084E491E00E943A
S11306A0DA0077C063E08091FA010E94B00087EE1F
S11306B091E00E94DA006DC063E08091FA010E942B
S11306C0B00082E591E00E94DA0063C063E08091AB
S11306D0FA010E94B00089EE91E00E94DA0059C04C
S11306E063E08091FA010E94B0008BEE91E00E94D9
S11306F0DA004FC063E08091FA010E94B0008DEEF1
S113070091E00E94DA0045C063E08091FA010E9402
S1130710B0008FEE91E00E94DA003BC063E080916C
S1130720FA010E94B00081EF91E00E94DA0031C02A
S113073063E08091FA010E94B00083EF91E00E948F
S1130740DA0027C063E08091FA010E94B00085EFCF
S113075091E00E94DA001DC063E08091FA010E94DA
S1130760B00087EF91E00E94DA0013C063E080914B
S1130770FA010E94B0008AE991E00E94DA0009C0FF
S113078063E08091FA010E94B0008AE991E00E943E
S1130790DA001092FD011092FC011092FB018FE32C
S11307A09CE90197F1F700C0000008958FE39CE9EC
S11307B00197F1F700C000008091FC01882319F033
S11307C0873099F01AC08091FA0181508093FA0120
S11307D063E00E94B0008AE991E00E94DA0080910F
S11307E0FA0181508093FA0108C063E080E00E941E
S11307F0B00087E891E00E94DA001092FD011092A7
S1130800FC011092FB018FE39CE90197F1F700C012
S1130810000008951F920F920FB60F9211242F9388
S11308203F934F935F936F937F938F939F93AF9374
S1130830BF93EF93FF932FE788E391E0215080402B
S11308409040E1F700C000008091FD018130D1F0BB
S113085028F0823021F1833079F13AC08091FB0194
S1130860811104C081E08093FD0132C0813021F404
S113087082E08093FD012CC0823051F583E08093A7
S1130880FD0126C08091FA01843119F41092FA0115
S11308901FC08F5F8093FA010E94800219C080916B
S11308A0FA01843119F41092FA0112C08F5F809317
S11308B0FA010E942B030CC08091FA01843119F4CF
S11308C01092FA0105C08F5F8093FA010E94D6034B
S11308D0FF91EF91BF91AF919F918F917F916F9114
S11308E05F914F913F912F910F900FBE0F901F90EA
S11308F018951F920F920FB60F9211248F939F9306
S11309008091FD0181110BC09091FB01933019F48A
S11309101092FB011EC09F5F9093FB011AC08130AF
S113092059F48091FC018E3019F41092FC011DC021
S11309308F5F8093FC0119C0823059F48091FC01CF
S11309408E3019F41092FC0110C08F5F8093FC016B
S11309500CC0833051F48091FC01873019F410925B
S1130960FC0103C0895F8093FC019F918F910F90DC
S11309700FBE0F901F901895EE0FFF1F0590F49176
S10B0980E02D0994F894FFCF67
S113098850524F594543544F00494E535452554DB4
S1130998454E544143494F4E0042494F4D45444901
S11309A84341002A4142434445464748494A4B4C3F
S11309B84D4E2000203050515253545556575859D3
S11309C85A204553500020424F5252415220434C22
S11309D845415200204142434445464748494A4B11
S11309E84C4D4E202020002A305051525354555615
S11309F85758595A20455350002A424F525241528F
S1130A0820434C4541520020202020202020202033
S1130A182020202020202020202020002041424384
S1130A284445464748494A4B4C4D4E202020200017
S1130A38202A200020424F5252415220434C454123
S1130A485220202000202020202A2020202000427C
S1130A580043004400450046004700480049004A56
S1130A68004B004C004D00510053005400550056F3
S10D0A78005700580059005A00000E
S9030000FC
